{
  "_format": "hh-sol-artifact-1",
  "contractName": "LeaseChain",
  "sourceName": "contracts/LeaseChain.sol",
  "abi": [
    {
      "inputs": [
        {
          "internalType": "address",
          "name": "_protocolFeeRecipient",
          "type": "address"
        }
      ],
      "stateMutability": "nonpayable",
      "type": "constructor"
    },
    {
      "inputs": [
        {
          "internalType": "address",
          "name": "owner",
          "type": "address"
        }
      ],
      "name": "OwnableInvalidOwner",
      "type": "error"
    },
    {
      "inputs": [
        {
          "internalType": "address",
          "name": "account",
          "type": "address"
        }
      ],
      "name": "OwnableUnauthorizedAccount",
      "type": "error"
    },
    {
      "inputs": [],
      "name": "ReentrancyGuardReentrantCall",
      "type": "error"
    },
    {
      "anonymous": false,
      "inputs": [
        {
          "indexed": true,
          "internalType": "address",
          "name": "previousOwner",
          "type": "address"
        },
        {
          "indexed": true,
          "internalType": "address",
          "name": "newOwner",
          "type": "address"
        }
      ],
      "name": "OwnershipTransferred",
      "type": "event"
    },
    {
      "anonymous": false,
      "inputs": [
        {
          "indexed": true,
          "internalType": "address",
          "name": "reactiveContract",
          "type": "address"
        }
      ],
      "name": "ReactiveContractSet",
      "type": "event"
    },
    {
      "anonymous": false,
      "inputs": [
        {
          "indexed": true,
          "internalType": "uint256",
          "name": "rentalId",
          "type": "uint256"
        },
        {
          "indexed": true,
          "internalType": "address",
          "name": "nftContract",
          "type": "address"
        },
        {
          "indexed": true,
          "internalType": "uint256",
          "name": "tokenId",
          "type": "uint256"
        },
        {
          "indexed": false,
          "internalType": "address",
          "name": "owner",
          "type": "address"
        },
        {
          "indexed": false,
          "internalType": "address",
          "name": "renter",
          "type": "address"
        },
        {
          "indexed": false,
          "internalType": "uint256",
          "name": "duration",
          "type": "uint256"
        },
        {
          "indexed": false,
          "internalType": "uint256",
          "name": "price",
          "type": "uint256"
        }
      ],
      "name": "RentalCreated",
      "type": "event"
    },
    {
      "anonymous": false,
      "inputs": [
        {
          "indexed": true,
          "internalType": "uint256",
          "name": "rentalId",
          "type": "uint256"
        },
        {
          "indexed": true,
          "internalType": "address",
          "name": "nftContract",
          "type": "address"
        },
        {
          "indexed": true,
          "internalType": "uint256",
          "name": "tokenId",
          "type": "uint256"
        },
        {
          "indexed": false,
          "internalType": "bool",
          "name": "automatic",
          "type": "bool"
        }
      ],
      "name": "RentalReclaimed",
      "type": "event"
    },
    {
      "anonymous": false,
      "inputs": [
        {
          "indexed": true,
          "internalType": "uint256",
          "name": "rentalId",
          "type": "uint256"
        },
        {
          "indexed": false,
          "internalType": "uint256",
          "name": "startTime",
          "type": "uint256"
        }
      ],
      "name": "RentalStarted",
      "type": "event"
    },
    {
      "inputs": [],
      "name": "MAX_FEE_PERCENT",
      "outputs": [
        {
          "internalType": "uint256",
          "name": "",
          "type": "uint256"
        }
      ],
      "stateMutability": "view",
      "type": "function"
    },
    {
      "inputs": [
        {
          "internalType": "uint256",
          "name": "rentalId",
          "type": "uint256"
        }
      ],
      "name": "automaticReclaim",
      "outputs": [],
      "stateMutability": "nonpayable",
      "type": "function"
    },
    {
      "inputs": [
        {
          "internalType": "address",
          "name": "nftContract",
          "type": "address"
        },
        {
          "internalType": "uint256",
          "name": "tokenId",
          "type": "uint256"
        },
        {
          "internalType": "address",
          "name": "renter",
          "type": "address"
        },
        {
          "internalType": "uint256",
          "name": "duration",
          "type": "uint256"
        },
        {
          "internalType": "uint256",
          "name": "price",
          "type": "uint256"
        }
      ],
      "name": "createRental",
      "outputs": [
        {
          "internalType": "uint256",
          "name": "rentalId",
          "type": "uint256"
        }
      ],
      "stateMutability": "nonpayable",
      "type": "function"
    },
    {
      "inputs": [
        {
          "internalType": "address",
          "name": "nftContract",
          "type": "address"
        },
        {
          "internalType": "uint256",
          "name": "tokenId",
          "type": "uint256"
        },
        {
          "internalType": "uint256",
          "name": "duration",
          "type": "uint256"
        },
        {
          "internalType": "uint256",
          "name": "price",
          "type": "uint256"
        }
      ],
      "name": "createRentalListing",
      "outputs": [
        {
          "internalType": "uint256",
          "name": "rentalId",
          "type": "uint256"
        }
      ],
      "stateMutability": "nonpayable",
      "type": "function"
    },
    {
      "inputs": [],
      "name": "emergencyWithdraw",
      "outputs": [],
      "stateMutability": "nonpayable",
      "type": "function"
    },
    {
      "inputs": [
        {
          "internalType": "uint256",
          "name": "rentalId",
          "type": "uint256"
        }
      ],
      "name": "getRental",
      "outputs": [
        {
          "components": [
            {
              "internalType": "address",
              "name": "nftContract",
              "type": "address"
            },
            {
              "internalType": "uint256",
              "name": "tokenId",
              "type": "uint256"
            },
            {
              "internalType": "address",
              "name": "owner",
              "type": "address"
            },
            {
              "internalType": "address",
              "name": "renter",
              "type": "address"
            },
            {
              "internalType": "uint256",
              "name": "startTime",
              "type": "uint256"
            },
            {
              "internalType": "uint256",
              "name": "duration",
              "type": "uint256"
            },
            {
              "internalType": "uint256",
              "name": "price",
              "type": "uint256"
            },
            {
              "internalType": "bool",
              "name": "isActive",
              "type": "bool"
            },
            {
              "internalType": "bool",
              "name": "isReclaimed",
              "type": "bool"
            }
          ],
          "internalType": "struct LeaseChain.Rental",
          "name": "",
          "type": "tuple"
        }
      ],
      "stateMutability": "view",
      "type": "function"
    },
    {
      "inputs": [
        {
          "internalType": "uint256",
          "name": "rentalId",
          "type": "uint256"
        }
      ],
      "name": "getRentalExpiryTime",
      "outputs": [
        {
          "internalType": "uint256",
          "name": "",
          "type": "uint256"
        }
      ],
      "stateMutability": "view",
      "type": "function"
    },
    {
      "inputs": [
        {
          "internalType": "address",
          "name": "owner",
          "type": "address"
        }
      ],
      "name": "getRentalsByOwner",
      "outputs": [
        {
          "internalType": "uint256[]",
          "name": "",
          "type": "uint256[]"
        }
      ],
      "stateMutability": "view",
      "type": "function"
    },
    {
      "inputs": [
        {
          "internalType": "address",
          "name": "renter",
          "type": "address"
        }
      ],
      "name": "getRentalsByRenter",
      "outputs": [
        {
          "internalType": "uint256[]",
          "name": "",
          "type": "uint256[]"
        }
      ],
      "stateMutability": "view",
      "type": "function"
    },
    {
      "inputs": [
        {
          "internalType": "uint256",
          "name": "rentalId",
          "type": "uint256"
        }
      ],
      "name": "isRentalExpired",
      "outputs": [
        {
          "internalType": "bool",
          "name": "",
          "type": "bool"
        }
      ],
      "stateMutability": "view",
      "type": "function"
    },
    {
      "inputs": [
        {
          "internalType": "uint256",
          "name": "rentalId",
          "type": "uint256"
        }
      ],
      "name": "manualReclaim",
      "outputs": [],
      "stateMutability": "nonpayable",
      "type": "function"
    },
    {
      "inputs": [],
      "name": "nextRentalId",
      "outputs": [
        {
          "internalType": "uint256",
          "name": "",
          "type": "uint256"
        }
      ],
      "stateMutability": "view",
      "type": "function"
    },
    {
      "inputs": [
        {
          "internalType": "address",
          "name": "",
          "type": "address"
        },
        {
          "internalType": "uint256",
          "name": "",
          "type": "uint256"
        }
      ],
      "name": "nftToRentalId",
      "outputs": [
        {
          "internalType": "uint256",
          "name": "",
          "type": "uint256"
        }
      ],
      "stateMutability": "view",
      "type": "function"
    },
    {
      "inputs": [
        {
          "internalType": "address",
          "name": "",
          "type": "address"
        },
        {
          "internalType": "address",
          "name": "",
          "type": "address"
        },
        {
          "internalType": "uint256",
          "name": "",
          "type": "uint256"
        },
        {
          "internalType": "bytes",
          "name": "",
          "type": "bytes"
        }
      ],
      "name": "onERC721Received",
      "outputs": [
        {
          "internalType": "bytes4",
          "name": "",
          "type": "bytes4"
        }
      ],
      "stateMutability": "pure",
      "type": "function"
    },
    {
      "inputs": [],
      "name": "owner",
      "outputs": [
        {
          "internalType": "address",
          "name": "",
          "type": "address"
        }
      ],
      "stateMutability": "view",
      "type": "function"
    },
    {
      "inputs": [
        {
          "internalType": "address",
          "name": "",
          "type": "address"
        },
        {
          "internalType": "uint256",
          "name": "",
          "type": "uint256"
        }
      ],
      "name": "ownerRentals",
      "outputs": [
        {
          "internalType": "uint256",
          "name": "",
          "type": "uint256"
        }
      ],
      "stateMutability": "view",
      "type": "function"
    },
    {
      "inputs": [],
      "name": "protocolFeePercent",
      "outputs": [
        {
          "internalType": "uint256",
          "name": "",
          "type": "uint256"
        }
      ],
      "stateMutability": "view",
      "type": "function"
    },
    {
      "inputs": [],
      "name": "protocolFeeRecipient",
      "outputs": [
        {
          "internalType": "address",
          "name": "",
          "type": "address"
        }
      ],
      "stateMutability": "view",
      "type": "function"
    },
    {
      "inputs": [],
      "name": "reactiveContract",
      "outputs": [
        {
          "internalType": "address",
          "name": "",
          "type": "address"
        }
      ],
      "stateMutability": "view",
      "type": "function"
    },
    {
      "inputs": [],
      "name": "renounceOwnership",
      "outputs": [],
      "stateMutability": "nonpayable",
      "type": "function"
    },
    {
      "inputs": [
        {
          "internalType": "uint256",
          "name": "",
          "type": "uint256"
        }
      ],
      "name": "rentals",
      "outputs": [
        {
          "internalType": "address",
          "name": "nftContract",
          "type": "address"
        },
        {
          "internalType": "uint256",
          "name": "tokenId",
          "type": "uint256"
        },
        {
          "internalType": "address",
          "name": "owner",
          "type": "address"
        },
        {
          "internalType": "address",
          "name": "renter",
          "type": "address"
        },
        {
          "internalType": "uint256",
          "name": "startTime",
          "type": "uint256"
        },
        {
          "internalType": "uint256",
          "name": "duration",
          "type": "uint256"
        },
        {
          "internalType": "uint256",
          "name": "price",
          "type": "uint256"
        },
        {
          "internalType": "bool",
          "name": "isActive",
          "type": "bool"
        },
        {
          "internalType": "bool",
          "name": "isReclaimed",
          "type": "bool"
        }
      ],
      "stateMutability": "view",
      "type": "function"
    },
    {
      "inputs": [
        {
          "internalType": "address",
          "name": "",
          "type": "address"
        },
        {
          "internalType": "uint256",
          "name": "",
          "type": "uint256"
        }
      ],
      "name": "renterRentals",
      "outputs": [
        {
          "internalType": "uint256",
          "name": "",
          "type": "uint256"
        }
      ],
      "stateMutability": "view",
      "type": "function"
    },
    {
      "inputs": [
        {
          "internalType": "uint256",
          "name": "_feePercent",
          "type": "uint256"
        }
      ],
      "name": "setProtocolFee",
      "outputs": [],
      "stateMutability": "nonpayable",
      "type": "function"
    },
    {
      "inputs": [
        {
          "internalType": "address",
          "name": "_recipient",
          "type": "address"
        }
      ],
      "name": "setProtocolFeeRecipient",
      "outputs": [],
      "stateMutability": "nonpayable",
      "type": "function"
    },
    {
      "inputs": [
        {
          "internalType": "address",
          "name": "_reactiveContract",
          "type": "address"
        }
      ],
      "name": "setReactiveContract",
      "outputs": [],
      "stateMutability": "nonpayable",
      "type": "function"
    },
    {
      "inputs": [
        {
          "internalType": "uint256",
          "name": "rentalId",
          "type": "uint256"
        }
      ],
      "name": "startRental",
      "outputs": [],
      "stateMutability": "payable",
      "type": "function"
    },
    {
      "inputs": [
        {
          "internalType": "address",
          "name": "newOwner",
          "type": "address"
        }
      ],
      "name": "transferOwnership",
      "outputs": [],
      "stateMutability": "nonpayable",
      "type": "function"
    }
  ],
  "bytecode": "0x6080604052600160065560fa60075534801561001a57600080fd5b506040516122b73803806122b7833981016040819052610039916100e2565b338061005f57604051631e4fbdf760e01b81526000600482015260240160405180910390fd5b61006881610092565b5060018055600880546001600160a01b0319166001600160a01b0392909216919091179055610112565b600080546001600160a01b038381166001600160a01b0319831681178455604051919092169283917f8be0079c531659141344cd1fd0a4f28419497f9722a3daafe3b4186f6b6457e09190a35050565b6000602082840312156100f457600080fd5b81516001600160a01b038116811461010b57600080fd5b9392505050565b612196806101216000396000f3fe60806040526004361061019c5760003560e01c8063787dce3d116100ec578063da806e611161008a578063e521cb9211610064578063e521cb921461064c578063e9e0d4db1461066c578063f2fde38b1461068c578063ffe0df1d146106ac57600080fd5b8063da806e61146105f7578063db2e21bc14610617578063e374950e1461062c57600080fd5b8063af94a1d1116100c6578063af94a1d1146104c1578063b98e0dc914610593578063c8af69a6146105cb578063d6e6eb9f146105e157600080fd5b8063787dce3d1461046357806378f5bdf8146104835780638da5cb5b146104a357600080fd5b80633e8d19fe1161015957806364df049e1161013357806364df049e14610317578063652bd29e1461033757806367d8174014610438578063715018a61461044e57600080fd5b80633e8d19fe146102925780634c55d7c8146102bf5780635799ce10146102df57600080fd5b80630c3e1dd0146101a1578063150b7a02146101b6578063264544f0146101f457806329133e601461021457806336719b4f14610244578063375972d714610272575b600080fd5b6101b46101af366004611df3565b6106cc565b005b3480156101c257600080fd5b506101d66101d1366004611e21565b610a2c565b6040516001600160e01b031990911681526020015b60405180910390f35b34801561020057600080fd5b506101b461020f366004611df3565b610a3e565b34801561022057600080fd5b5061023461022f366004611df3565b610b85565b60405190151581526020016101eb565b34801561025057600080fd5b5061026461025f366004611ec2565b610c4f565b6040519081526020016101eb565b34801561027e57600080fd5b5061026461028d366004611efd565b6111a1565b34801561029e57600080fd5b506102b26102ad366004611f29565b6111d2565b6040516101eb9190611f46565b3480156102cb57600080fd5b506102646102da366004611efd565b61123e565b3480156102eb57600080fd5b506009546102ff906001600160a01b031681565b6040516001600160a01b0390911681526020016101eb565b34801561032357600080fd5b506008546102ff906001600160a01b031681565b34801561034357600080fd5b5061042b610352366004611df3565b6040805161012081018252600080825260208201819052918101829052606081018290526080810182905260a0810182905260c0810182905260e081018290526101008101919091525060009081526002602081815260409283902083516101208101855281546001600160a01b03908116825260018301549382019390935292810154821693830193909352600383015416606082015260048201546080820152600582015460a0820152600682015460c082015260079091015460ff808216151560e0840152610100918290041615159082015290565b6040516101eb9190611f89565b34801561044457600080fd5b506102646103e881565b34801561045a57600080fd5b506101b461125a565b34801561046f57600080fd5b506101b461047e366004611df3565b61126e565b34801561048f57600080fd5b5061026461049e366004611df3565b6112bc565b3480156104af57600080fd5b506000546001600160a01b03166102ff565b3480156104cd57600080fd5b5061053b6104dc366004611df3565b6002602081905260009182526040909120805460018201549282015460038301546004840154600585015460068601546007909601546001600160a01b0395861697969486169590931693919290919060ff8082169161010090041689565b604080516001600160a01b039a8b168152602081019990995296891696880196909652969093166060860152608085019190915260a084015260c083015291151560e0820152901515610100820152610120016101eb565b34801561059f57600080fd5b506102646105ae366004611efd565b600360209081526000928352604080842090915290825290205481565b3480156105d757600080fd5b5061026460065481565b3480156105ed57600080fd5b5061026460075481565b34801561060357600080fd5b50610264610612366004612010565b611375565b34801561062357600080fd5b506101b4611958565b34801561063857600080fd5b506102b2610647366004611f29565b61199a565b34801561065857600080fd5b506101b4610667366004611f29565b611a04565b34801561067857600080fd5b506101b4610687366004611f29565b611a78565b34801561069857600080fd5b506101b46106a7366004611f29565b611aca565b3480156106b857600080fd5b506101b46106c7366004611df3565b611b05565b6106d4611c57565b8060065481106106ff5760405162461bcd60e51b81526004016106f690612062565b60405180910390fd5b600082815260026020526040902060038101546001600160a01b0316156107815760038101546001600160a01b0316331461077c5760405162461bcd60e51b815260206004820152601e60248201527f4f6e6c792061737369676e65642072656e7465722063616e207374617274000060448201526064016106f6565b6107ba565b6003810180546001600160a01b031916339081179091556000908152600560209081526040822080546001810182559083529120018390555b6004810154156108055760405162461bcd60e51b815260206004820152601660248201527514995b9d185b08185b1c9958591e481cdd185c9d195960521b60448201526064016106f6565b80600601543410156108505760405162461bcd60e51b8152602060048201526014602482015273125b9cdd59999a58da595b9d081c185e5b595b9d60621b60448201526064016106f6565b6000612710600754836006015461086791906120a3565b61087191906120c0565b9050600081836006015461088591906120e2565b905081156108c9576008546040516001600160a01b039091169083156108fc029084906000818181858888f193505050501580156108c7573d6000803e3d6000fd5b505b60028301546040516001600160a01b039091169082156108fc029083906000818181858888f19350505050158015610905573d6000803e3d6000fd5b50826006015434111561095157600683015433906108fc9061092790346120e2565b6040518115909202916000818181858888f1935050505015801561094f573d6000803e3d6000fd5b505b8254600284015460038501546001860154604051632142170760e11b81526001600160a01b039384166004820152918316602483015260448201529116906342842e0e90606401600060405180830381600087803b1580156109b257600080fd5b505af11580156109c6573d6000803e3d6000fd5b5050426004860181905560078601805460ff191660011790556040518893507fae001b48932b9ba9c6f14970798dba27cdc66e6a7c2dd5e682d5f2da088b947a9250610a1491815260200190565b60405180910390a250505050610a2960018055565b50565b630a85bd0160e11b5b95945050505050565b6009546001600160a01b03163314610a985760405162461bcd60e51b815260206004820152601f60248201527f4f6e6c7920726561637469766520636f6e74726163742063616e2063616c6c0060448201526064016106f6565b806006548110610aba5760405162461bcd60e51b81526004016106f690612062565b60008181526002602052604090206007015460ff16610b0f5760405162461bcd60e51b815260206004820152601160248201527052656e74616c206e6f742061637469766560781b60448201526064016106f6565b600082815260026020526040902060058101546004820154610b3191906120f5565b421015610b755760405162461bcd60e51b815260206004820152601260248201527114995b9d185b081b9bdd08195e1c1a5c995960721b60448201526064016106f6565b610b80836001611c81565b505050565b600081815260026020818152604080842081516101208101835281546001600160a01b039081168252600183015494820194909452938101548316918401919091526003810154909116606083015260048101546080830152600581015460a0830152600681015460c08301526007015460ff80821615801560e08501526101009283900490911615159183019190915280610c2357506080810151155b15610c315750600092915050565b8060a001518160800151610c4591906120f5565b4210159392505050565b6000610c59611c57565b6001600160a01b038516610ca65760405162461bcd60e51b8152602060048201526014602482015273125b9d985b1a59081391950818dbdb9d1c9858dd60621b60448201526064016106f6565b60008311610cf25760405162461bcd60e51b81526020600482015260196024820152784475726174696f6e206d75737420626520706f73697469766560381b60448201526064016106f6565b60008211610d3b5760405162461bcd60e51b81526020600482015260166024820152755072696365206d75737420626520706f73697469766560501b60448201526064016106f6565b6040516331a9108f60e11b815260048101859052859033906001600160a01b03831690636352211e90602401602060405180830381865afa158015610d84573d6000803e3d6000fd5b505050506040513d601f19601f82011682018060405250810190610da89190612108565b6001600160a01b031614610dee5760405162461bcd60e51b815260206004820152600d60248201526c2737ba1027232a1037bbb732b960991b60448201526064016106f6565b60405163020604bf60e21b81526004810186905230906001600160a01b0383169063081812fc90602401602060405180830381865afa158015610e35573d6000803e3d6000fd5b505050506040513d601f19601f82011682018060405250810190610e599190612108565b6001600160a01b03161480610ed7575060405163e985e9c560e01b81523360048201523060248201526001600160a01b0382169063e985e9c590604401602060405180830381865afa158015610eb3573d6000803e3d6000fd5b505050506040513d601f19601f82011682018060405250810190610ed79190612125565b610f1b5760405162461bcd60e51b815260206004820152601560248201527410dbdb9d1c9858dd081b9bdd08185c1c1c9bdd9959605a1b60448201526064016106f6565b60068054906000610f2b83612147565b919050559150604051806101200160405280876001600160a01b03168152602001868152602001336001600160a01b0316815260200160006001600160a01b0316815260200160008152602001858152602001848152602001600015158152602001600015158152506002600084815260200190815260200160002060008201518160000160006101000a8154816001600160a01b0302191690836001600160a01b031602179055506020820151816001015560408201518160020160006101000a8154816001600160a01b0302191690836001600160a01b0316021790555060608201518160030160006101000a8154816001600160a01b0302191690836001600160a01b031602179055506080820151816004015560a0820151816005015560c0820151816006015560e08201518160070160006101000a81548160ff0219169083151502179055506101008201518160070160016101000a81548160ff0219169083151502179055509050508160036000886001600160a01b03166001600160a01b0316815260200190815260200160002060008781526020019081526020016000208190555060046000336001600160a01b03166001600160a01b0316815260200190815260200160002082908060018154018082558091505060019003906000526020600020016000909190919091505584866001600160a01b0316837fbacc113f3ec4503bc2d38fa318397620aadf15e1340a4165723fecc423e43800336000898960405161118794939291906001600160a01b0394851681529290931660208301526040820152606081019190915260800190565b60405180910390a45061119960018055565b949350505050565b600560205281600052604060002081815481106111bd57600080fd5b90600052602060002001600091509150505481565b6001600160a01b03811660009081526004602090815260409182902080548351818402810184019094528084526060939283018282801561123257602002820191906000526020600020905b81548152602001906001019080831161121e575b50505050509050919050565b600460205281600052604060002081815481106111bd57600080fd5b611262611d76565b61126c6000611da3565b565b611276611d76565b6103e88111156112b75760405162461bcd60e51b815260206004820152600c60248201526b08ccaca40e8dede40d0d2ced60a31b60448201526064016106f6565b600755565b600081815260026020818152604080842081516101208101835281546001600160a01b0390811682526001830154948201949094529381015483169184019190915260038101549091166060830152600481015460808301819052600582015460a0840152600682015460c084015260079091015460ff808216151560e08501526101009182900416151590830152820361135a5750600092915050565b8060a00151816080015161136e91906120f5565b9392505050565b600061137f611c57565b6001600160a01b0386166113cc5760405162461bcd60e51b8152602060048201526014602482015273125b9d985b1a59081391950818dbdb9d1c9858dd60621b60448201526064016106f6565b6001600160a01b03841661141b5760405162461bcd60e51b8152602060048201526016602482015275496e76616c69642072656e746572206164647265737360501b60448201526064016106f6565b600083116114675760405162461bcd60e51b81526020600482015260196024820152784475726174696f6e206d75737420626520706f73697469766560381b60448201526064016106f6565b600082116114b05760405162461bcd60e51b81526020600482015260166024820152755072696365206d75737420626520706f73697469766560501b60448201526064016106f6565b6040516331a9108f60e11b815260048101869052869033906001600160a01b03831690636352211e90602401602060405180830381865afa1580156114f9573d6000803e3d6000fd5b505050506040513d601f19601f8201168201806040525081019061151d9190612108565b6001600160a01b0316146115635760405162461bcd60e51b815260206004820152600d60248201526c2737ba1027232a1037bbb732b960991b60448201526064016106f6565b60405163020604bf60e21b81526004810187905230906001600160a01b0383169063081812fc90602401602060405180830381865afa1580156115aa573d6000803e3d6000fd5b505050506040513d601f19601f820116820180604052508101906115ce9190612108565b6001600160a01b0316148061164c575060405163e985e9c560e01b81523360048201523060248201526001600160a01b0382169063e985e9c590604401602060405180830381865afa158015611628573d6000803e3d6000fd5b505050506040513d601f19601f8201168201806040525081019061164c9190612125565b6116905760405162461bcd60e51b815260206004820152601560248201527410dbdb9d1c9858dd081b9bdd08185c1c1c9bdd9959605a1b60448201526064016106f6565b600680549060006116a083612147565b919050559150604051806101200160405280886001600160a01b03168152602001878152602001336001600160a01b03168152602001866001600160a01b0316815260200160008152602001858152602001848152602001600015158152602001600015158152506002600084815260200190815260200160002060008201518160000160006101000a8154816001600160a01b0302191690836001600160a01b031602179055506020820151816001015560408201518160020160006101000a8154816001600160a01b0302191690836001600160a01b0316021790555060608201518160030160006101000a8154816001600160a01b0302191690836001600160a01b031602179055506080820151816004015560a0820151816005015560c0820151816006015560e08201518160070160006101000a81548160ff0219169083151502179055506101008201518160070160016101000a81548160ff0219169083151502179055509050508160036000896001600160a01b03166001600160a01b0316815260200190815260200160002060008881526020019081526020016000208190555060046000336001600160a01b03166001600160a01b0316815260200190815260200160002082908060018154018082558091505060019003906000526020600020016000909190919091505560056000866001600160a01b03166001600160a01b0316815260200190815260200160002082908060018154018082558091505060019003906000526020600020016000909190919091505585876001600160a01b0316837fbacc113f3ec4503bc2d38fa318397620aadf15e1340a4165723fecc423e438003389898960405161194694939291906001600160a01b0394851681529290931660208301526040820152606081019190915260800190565b60405180910390a450610a3560018055565b611960611d76565b600080546040516001600160a01b03909116914780156108fc02929091818181858888f19350505050158015610a29573d6000803e3d6000fd5b6001600160a01b038116600090815260056020908152604091829020805483518184028101840190945280845260609392830182828015611232576020028201919060005260206000209081548152602001906001019080831161121e5750505050509050919050565b611a0c611d76565b6001600160a01b038116611a565760405162461bcd60e51b8152602060048201526011602482015270125b9d985b1a59081c9958da5c1a595b9d607a1b60448201526064016106f6565b600880546001600160a01b0319166001600160a01b0392909216919091179055565b611a80611d76565b600980546001600160a01b0319166001600160a01b0383169081179091556040517f5ac5497ec22799732cb1ea033c0de979dbb96cfdb7ffb55b2075017674d70ba490600090a250565b611ad2611d76565b6001600160a01b038116611afc57604051631e4fbdf760e01b8152600060048201526024016106f6565b610a2981611da3565b611b0d611c57565b806006548110611b2f5760405162461bcd60e51b81526004016106f690612062565b60008181526002602052604090206007015460ff16611b845760405162461bcd60e51b815260206004820152601160248201527052656e74616c206e6f742061637469766560781b60448201526064016106f6565b6000828152600260208190526040909120908101546001600160a01b03163314611be95760405162461bcd60e51b81526020600482015260166024820152754f6e6c79206f776e65722063616e207265636c61696d60501b60448201526064016106f6565b80600501548160040154611bfd91906120f5565b421015611c415760405162461bcd60e51b815260206004820152601260248201527114995b9d185b081b9bdd08195e1c1a5c995960721b60448201526064016106f6565b611c4c836000611c81565b5050610a2960018055565b600260015403611c7a57604051633ee5aeb560e01b815260040160405180910390fd5b6002600155565b600082815260026020819052604091829020805460038201549282015460018301549451632142170760e11b81526001600160a01b0394851660048201529084166024820152604481019490945290929116906342842e0e90606401600060405180830381600087803b158015611cf757600080fd5b505af1158015611d0b573d6000803e3d6000fd5b50505060078201805461ffff191661010017905550600181015481546040516001600160a01b039091169085907fe03b5caf4812ac004821a8dcd023569cc5bc90e5cee530945bdb10971e55f0db90611d6990871515815260200190565b60405180910390a4505050565b6000546001600160a01b0316331461126c5760405163118cdaa760e01b81523360048201526024016106f6565b600080546001600160a01b038381166001600160a01b0319831681178455604051919092169283917f8be0079c531659141344cd1fd0a4f28419497f9722a3daafe3b4186f6b6457e09190a35050565b600060208284031215611e0557600080fd5b5035919050565b6001600160a01b0381168114610a2957600080fd5b600080600080600060808688031215611e3957600080fd5b8535611e4481611e0c565b94506020860135611e5481611e0c565b935060408601359250606086013567ffffffffffffffff811115611e7757600080fd5b8601601f81018813611e8857600080fd5b803567ffffffffffffffff811115611e9f57600080fd5b886020828401011115611eb157600080fd5b959894975092955050506020019190565b60008060008060808587031215611ed857600080fd5b8435611ee381611e0c565b966020860135965060408601359560600135945092505050565b60008060408385031215611f1057600080fd5b8235611f1b81611e0c565b946020939093013593505050565b600060208284031215611f3b57600080fd5b813561136e81611e0c565b602080825282518282018190526000918401906040840190835b81811015611f7e578351835260209384019390920191600101611f60565b509095945050505050565b81516001600160a01b0390811682526020808401519083015260408084015182169083015260608084015191821690830152610120820190506080830151608083015260a083015160a083015260c083015160c083015260e0830151611ff360e084018215159052565b5061010083015161200961010084018215159052565b5092915050565b600080600080600060a0868803121561202857600080fd5b853561203381611e0c565b945060208601359350604086013561204a81611e0c565b94979396509394606081013594506080013592915050565b602080825260119082015270125b9d985b1a59081c995b9d185b081251607a1b604082015260600190565b634e487b7160e01b600052601160045260246000fd5b80820281158282048414176120ba576120ba61208d565b92915050565b6000826120dd57634e487b7160e01b600052601260045260246000fd5b500490565b818103818111156120ba576120ba61208d565b808201808211156120ba576120ba61208d565b60006020828403121561211a57600080fd5b815161136e81611e0c565b60006020828403121561213757600080fd5b8151801515811461136e57600080fd5b6000600182016121595761215961208d565b506001019056fea264697066735822122005ba01095e93c48e4231a805cb47bae5aa3b9cf6bd3462b93008109139fd9ef864736f6c634300081c0033",
  "linkReferences": {},
  "deployedLinkReferences": {}
}