{
  "_format": "hh-sol-artifact-1",
  "contractName": "TestNFT",
  "sourceName": "contracts/TestNFT.sol",
  "abi": [
    {
      "inputs": [
        {
          "internalType": "string",
          "name": "name",
          "type": "string"
        },
        {
          "internalType": "string",
          "name": "symbol",
          "type": "string"
        },
        {
          "internalType": "string",
          "name": "baseTokenURI",
          "type": "string"
        }
      ],
      "stateMutability": "nonpayable",
      "type": "constructor"
    },
    {
      "inputs": [
        {
          "internalType": "address",
          "name": "sender",
          "type": "address"
        },
        {
          "internalType": "uint256",
          "name": "tokenId",
          "type": "uint256"
        },
        {
          "internalType": "address",
          "name": "owner",
          "type": "address"
        }
      ],
      "name": "ERC721IncorrectOwner",
      "type": "error"
    },
    {
      "inputs": [
        {
          "internalType": "address",
          "name": "operator",
          "type": "address"
        },
        {
          "internalType": "uint256",
          "name": "tokenId",
          "type": "uint256"
        }
      ],
      "name": "ERC721InsufficientApproval",
      "type": "error"
    },
    {
      "inputs": [
        {
          "internalType": "address",
          "name": "approver",
          "type": "address"
        }
      ],
      "name": "ERC721InvalidApprover",
      "type": "error"
    },
    {
      "inputs": [
        {
          "internalType": "address",
          "name": "operator",
          "type": "address"
        }
      ],
      "name": "ERC721InvalidOperator",
      "type": "error"
    },
    {
      "inputs": [
        {
          "internalType": "address",
          "name": "owner",
          "type": "address"
        }
      ],
      "name": "ERC721InvalidOwner",
      "type": "error"
    },
    {
      "inputs": [
        {
          "internalType": "address",
          "name": "receiver",
          "type": "address"
        }
      ],
      "name": "ERC721InvalidReceiver",
      "type": "error"
    },
    {
      "inputs": [
        {
          "internalType": "address",
          "name": "sender",
          "type": "address"
        }
      ],
      "name": "ERC721InvalidSender",
      "type": "error"
    },
    {
      "inputs": [
        {
          "internalType": "uint256",
          "name": "tokenId",
          "type": "uint256"
        }
      ],
      "name": "ERC721NonexistentToken",
      "type": "error"
    },
    {
      "inputs": [
        {
          "internalType": "address",
          "name": "owner",
          "type": "address"
        }
      ],
      "name": "OwnableInvalidOwner",
      "type": "error"
    },
    {
      "inputs": [
        {
          "internalType": "address",
          "name": "account",
          "type": "address"
        }
      ],
      "name": "OwnableUnauthorizedAccount",
      "type": "error"
    },
    {
      "anonymous": false,
      "inputs": [
        {
          "indexed": true,
          "internalType": "address",
          "name": "owner",
          "type": "address"
        },
        {
          "indexed": true,
          "internalType": "address",
          "name": "approved",
          "type": "address"
        },
        {
          "indexed": true,
          "internalType": "uint256",
          "name": "tokenId",
          "type": "uint256"
        }
      ],
      "name": "Approval",
      "type": "event"
    },
    {
      "anonymous": false,
      "inputs": [
        {
          "indexed": true,
          "internalType": "address",
          "name": "owner",
          "type": "address"
        },
        {
          "indexed": true,
          "internalType": "address",
          "name": "operator",
          "type": "address"
        },
        {
          "indexed": false,
          "internalType": "bool",
          "name": "approved",
          "type": "bool"
        }
      ],
      "name": "ApprovalForAll",
      "type": "event"
    },
    {
      "anonymous": false,
      "inputs": [
        {
          "indexed": true,
          "internalType": "address",
          "name": "previousOwner",
          "type": "address"
        },
        {
          "indexed": true,
          "internalType": "address",
          "name": "newOwner",
          "type": "address"
        }
      ],
      "name": "OwnershipTransferred",
      "type": "event"
    },
    {
      "anonymous": false,
      "inputs": [
        {
          "indexed": true,
          "internalType": "address",
          "name": "from",
          "type": "address"
        },
        {
          "indexed": true,
          "internalType": "address",
          "name": "to",
          "type": "address"
        },
        {
          "indexed": true,
          "internalType": "uint256",
          "name": "tokenId",
          "type": "uint256"
        }
      ],
      "name": "Transfer",
      "type": "event"
    },
    {
      "inputs": [
        {
          "internalType": "address",
          "name": "to",
          "type": "address"
        },
        {
          "internalType": "uint256",
          "name": "tokenId",
          "type": "uint256"
        }
      ],
      "name": "approve",
      "outputs": [],
      "stateMutability": "nonpayable",
      "type": "function"
    },
    {
      "inputs": [
        {
          "internalType": "address",
          "name": "owner",
          "type": "address"
        }
      ],
      "name": "balanceOf",
      "outputs": [
        {
          "internalType": "uint256",
          "name": "",
          "type": "uint256"
        }
      ],
      "stateMutability": "view",
      "type": "function"
    },
    {
      "inputs": [
        {
          "internalType": "uint256",
          "name": "tokenId",
          "type": "uint256"
        }
      ],
      "name": "getApproved",
      "outputs": [
        {
          "internalType": "address",
          "name": "",
          "type": "address"
        }
      ],
      "stateMutability": "view",
      "type": "function"
    },
    {
      "inputs": [],
      "name": "getNextTokenId",
      "outputs": [
        {
          "internalType": "uint256",
          "name": "",
          "type": "uint256"
        }
      ],
      "stateMutability": "view",
      "type": "function"
    },
    {
      "inputs": [
        {
          "internalType": "address",
          "name": "owner",
          "type": "address"
        },
        {
          "internalType": "address",
          "name": "operator",
          "type": "address"
        }
      ],
      "name": "isApprovedForAll",
      "outputs": [
        {
          "internalType": "bool",
          "name": "",
          "type": "bool"
        }
      ],
      "stateMutability": "view",
      "type": "function"
    },
    {
      "inputs": [
        {
          "internalType": "address",
          "name": "to",
          "type": "address"
        }
      ],
      "name": "mint",
      "outputs": [
        {
          "internalType": "uint256",
          "name": "",
          "type": "uint256"
        }
      ],
      "stateMutability": "nonpayable",
      "type": "function"
    },
    {
      "inputs": [
        {
          "internalType": "address",
          "name": "to",
          "type": "address"
        },
        {
          "internalType": "uint256",
          "name": "quantity",
          "type": "uint256"
        }
      ],
      "name": "mintBatch",
      "outputs": [
        {
          "internalType": "uint256[]",
          "name": "",
          "type": "uint256[]"
        }
      ],
      "stateMutability": "nonpayable",
      "type": "function"
    },
    {
      "inputs": [],
      "name": "name",
      "outputs": [
        {
          "internalType": "string",
          "name": "",
          "type": "string"
        }
      ],
      "stateMutability": "view",
      "type": "function"
    },
    {
      "inputs": [],
      "name": "owner",
      "outputs": [
        {
          "internalType": "address",
          "name": "",
          "type": "address"
        }
      ],
      "stateMutability": "view",
      "type": "function"
    },
    {
      "inputs": [
        {
          "internalType": "uint256",
          "name": "tokenId",
          "type": "uint256"
        }
      ],
      "name": "ownerOf",
      "outputs": [
        {
          "internalType": "address",
          "name": "",
          "type": "address"
        }
      ],
      "stateMutability": "view",
      "type": "function"
    },
    {
      "inputs": [],
      "name": "publicMint",
      "outputs": [
        {
          "internalType": "uint256",
          "name": "",
          "type": "uint256"
        }
      ],
      "stateMutability": "nonpayable",
      "type": "function"
    },
    {
      "inputs": [],
      "name": "renounceOwnership",
      "outputs": [],
      "stateMutability": "nonpayable",
      "type": "function"
    },
    {
      "inputs": [
        {
          "internalType": "address",
          "name": "from",
          "type": "address"
        },
        {
          "internalType": "address",
          "name": "to",
          "type": "address"
        },
        {
          "internalType": "uint256",
          "name": "tokenId",
          "type": "uint256"
        }
      ],
      "name": "safeTransferFrom",
      "outputs": [],
      "stateMutability": "nonpayable",
      "type": "function"
    },
    {
      "inputs": [
        {
          "internalType": "address",
          "name": "from",
          "type": "address"
        },
        {
          "internalType": "address",
          "name": "to",
          "type": "address"
        },
        {
          "internalType": "uint256",
          "name": "tokenId",
          "type": "uint256"
        },
        {
          "internalType": "bytes",
          "name": "data",
          "type": "bytes"
        }
      ],
      "name": "safeTransferFrom",
      "outputs": [],
      "stateMutability": "nonpayable",
      "type": "function"
    },
    {
      "inputs": [
        {
          "internalType": "address",
          "name": "operator",
          "type": "address"
        },
        {
          "internalType": "bool",
          "name": "approved",
          "type": "bool"
        }
      ],
      "name": "setApprovalForAll",
      "outputs": [],
      "stateMutability": "nonpayable",
      "type": "function"
    },
    {
      "inputs": [
        {
          "internalType": "string",
          "name": "baseTokenURI",
          "type": "string"
        }
      ],
      "name": "setBaseURI",
      "outputs": [],
      "stateMutability": "nonpayable",
      "type": "function"
    },
    {
      "inputs": [
        {
          "internalType": "bytes4",
          "name": "interfaceId",
          "type": "bytes4"
        }
      ],
      "name": "supportsInterface",
      "outputs": [
        {
          "internalType": "bool",
          "name": "",
          "type": "bool"
        }
      ],
      "stateMutability": "view",
      "type": "function"
    },
    {
      "inputs": [],
      "name": "symbol",
      "outputs": [
        {
          "internalType": "string",
          "name": "",
          "type": "string"
        }
      ],
      "stateMutability": "view",
      "type": "function"
    },
    {
      "inputs": [
        {
          "internalType": "uint256",
          "name": "tokenId",
          "type": "uint256"
        }
      ],
      "name": "tokenURI",
      "outputs": [
        {
          "internalType": "string",
          "name": "",
          "type": "string"
        }
      ],
      "stateMutability": "view",
      "type": "function"
    },
    {
      "inputs": [],
      "name": "totalSupply",
      "outputs": [
        {
          "internalType": "uint256",
          "name": "",
          "type": "uint256"
        }
      ],
      "stateMutability": "view",
      "type": "function"
    },
    {
      "inputs": [
        {
          "internalType": "address",
          "name": "from",
          "type": "address"
        },
        {
          "internalType": "address",
          "name": "to",
          "type": "address"
        },
        {
          "internalType": "uint256",
          "name": "tokenId",
          "type": "uint256"
        }
      ],
      "name": "transferFrom",
      "outputs": [],
      "stateMutability": "nonpayable",
      "type": "function"
    },
    {
      "inputs": [
        {
          "internalType": "address",
          "name": "newOwner",
          "type": "address"
        }
      ],
      "name": "transferOwnership",
      "outputs": [],
      "stateMutability": "nonpayable",
      "type": "function"
    }
  ],
  "bytecode": "0x6080604052600160075534801561001557600080fd5b50604051611804380380611804833981016040819052610034916101ab565b338383600061004383826102c9565b50600161005082826102c9565b5050506001600160a01b03811661008157604051631e4fbdf760e01b81526000600482015260240160405180910390fd5b61008a816100a0565b50600861009782826102c9565b50505050610387565b600680546001600160a01b038381166001600160a01b0319831681179093556040519116919082907f8be0079c531659141344cd1fd0a4f28419497f9722a3daafe3b4186f6b6457e090600090a35050565b634e487b7160e01b600052604160045260246000fd5b600082601f83011261011957600080fd5b81516001600160401b03811115610132576101326100f2565b604051601f8201601f19908116603f011681016001600160401b0381118282101715610160576101606100f2565b60405281815283820160200185101561017857600080fd5b60005b828110156101975760208186018101518383018201520161017b565b506000918101602001919091529392505050565b6000806000606084860312156101c057600080fd5b83516001600160401b038111156101d657600080fd5b6101e286828701610108565b602086015190945090506001600160401b0381111561020057600080fd5b61020c86828701610108565b604086015190935090506001600160401b0381111561022a57600080fd5b61023686828701610108565b9150509250925092565b600181811c9082168061025457607f821691505b60208210810361027457634e487b7160e01b600052602260045260246000fd5b50919050565b601f8211156102c457806000526020600020601f840160051c810160208510156102a15750805b601f840160051c820191505b818110156102c157600081556001016102ad565b50505b505050565b81516001600160401b038111156102e2576102e26100f2565b6102f6816102f08454610240565b8461027a565b6020601f82116001811461032a57600083156103125750848201515b600019600385901b1c1916600184901b1784556102c1565b600084815260208120601f198516915b8281101561035a578785015182556020948501946001909201910161033a565b50848210156103785786840151600019600387901b60f8161c191681555b50505050600190811b01905550565b61146e806103966000396000f3fe608060405234801561001057600080fd5b50600436106101425760003560e01c80636a627842116100b8578063a22cb4651161007c578063a22cb46514610295578063b88d4fde146102a8578063c87b56dd146102bb578063caa0f92a146102ce578063e985e9c5146102d6578063f2fde38b146102e957600080fd5b80636a6278421461024e57806370a0823114610261578063715018a6146102745780638da5cb5b1461027c57806395d89b411461028d57600080fd5b806323b872dd1161010a57806323b872dd146101da578063248b71fc146101ed57806326092b831461020d57806342842e0e1461021557806355f804b3146102285780636352211e1461023b57600080fd5b806301ffc9a71461014757806306fdde031461016f578063081812fc14610184578063095ea7b3146101af57806318160ddd146101c4575b600080fd5b61015a610155366004610ede565b6102fc565b60405190151581526020015b60405180910390f35b61017761034e565b6040516101669190610f4b565b610197610192366004610f5e565b6103e0565b6040516001600160a01b039091168152602001610166565b6101c26101bd366004610f8e565b610409565b005b6101cc610418565b604051908152602001610166565b6101c26101e8366004610fb8565b61042e565b6102006101fb366004610f8e565b6104be565b6040516101669190610ff5565b6101cc61056a565b6101c2610223366004610fb8565b610593565b6101c26102363660046110c8565b6105b3565b610197610249366004610f5e565b6105c7565b6101cc61025c366004611111565b6105d2565b6101cc61026f366004611111565b6105fd565b6101c2610645565b6006546001600160a01b0316610197565b610177610659565b6101c26102a336600461112c565b610668565b6101c26102b6366004611168565b610673565b6101776102c9366004610f5e565b61068b565b6007546101cc565b61015a6102e43660046111e4565b6106f3565b6101c26102f7366004611111565b610721565b60006001600160e01b031982166380ac58cd60e01b148061032d57506001600160e01b03198216635b5e139f60e01b145b8061034857506301ffc9a760e01b6001600160e01b03198316145b92915050565b60606000805461035d90611217565b80601f016020809104026020016040519081016040528092919081815260200182805461038990611217565b80156103d65780601f106103ab576101008083540402835291602001916103d6565b820191906000526020600020905b8154815290600101906020018083116103b957829003601f168201915b5050505050905090565b60006103eb8261075f565b506000828152600460205260409020546001600160a01b0316610348565b610414828233610798565b5050565b600060016007546104299190611267565b905090565b6001600160a01b03821661045d57604051633250574960e11b8152600060048201526024015b60405180910390fd5b600061046a8383336107a5565b9050836001600160a01b0316816001600160a01b0316146104b8576040516364283d7b60e01b81526001600160a01b0380861660048301526024820184905282166044820152606401610454565b50505050565b60606104c861089e565b60008267ffffffffffffffff8111156104e3576104e3611038565b60405190808252806020026020018201604052801561050c578160200160208202803683370190505b50905060005b8381101561056257600780546000918261052b8361127a565b91905055905061053b86826108cb565b8083838151811061054e5761054e611293565b602090810291909101015250600101610512565b509392505050565b600780546000918291908261057e8361127a565b91905055905061058e33826108cb565b919050565b6105ae83838360405180602001604052806000815250610673565b505050565b6105bb61089e565b600861041482826112f0565b60006103488261075f565b60006105dc61089e565b60078054600091826105ed8361127a565b91905055905061034883826108cb565b60006001600160a01b038216610629576040516322718ad960e21b815260006004820152602401610454565b506001600160a01b031660009081526003602052604090205490565b61064d61089e565b61065760006108e5565b565b60606001805461035d90611217565b610414338383610937565b61067e84848461042e565b6104b833858585856109d6565b60606106968261075f565b5060006106a1610b01565b905060008151116106c157604051806020016040528060008152506106ec565b806106cb84610b10565b6040516020016106dc9291906113af565b6040516020818303038152906040525b9392505050565b6001600160a01b03918216600090815260056020908152604080832093909416825291909152205460ff1690565b61072961089e565b6001600160a01b03811661075357604051631e4fbdf760e01b815260006004820152602401610454565b61075c816108e5565b50565b6000818152600260205260408120546001600160a01b03168061034857604051637e27328960e01b815260048101849052602401610454565b6105ae8383836001610ba3565b6000828152600260205260408120546001600160a01b03908116908316156107d2576107d2818486610ca9565b6001600160a01b03811615610810576107ef600085600080610ba3565b6001600160a01b038116600090815260036020526040902080546000190190555b6001600160a01b0385161561083f576001600160a01b0385166000908152600360205260409020805460010190555b60008481526002602052604080822080546001600160a01b0319166001600160a01b0389811691821790925591518793918516917fddf252ad1be2c89b69c2b068fc378daa952ba7f163c4a11628f55a4df523b3ef91a4949350505050565b6006546001600160a01b031633146106575760405163118cdaa760e01b8152336004820152602401610454565b610414828260405180602001604052806000815250610d0d565b600680546001600160a01b038381166001600160a01b0319831681179093556040519116919082907f8be0079c531659141344cd1fd0a4f28419497f9722a3daafe3b4186f6b6457e090600090a35050565b6001600160a01b03821661096957604051630b61174360e31b81526001600160a01b0383166004820152602401610454565b6001600160a01b03838116600081815260056020908152604080832094871680845294825291829020805460ff191686151590811790915591519182527f17307eab39ab6107e8899845ad3d59bd9653f200f220920489ca2b5937696c31910160405180910390a3505050565b6001600160a01b0383163b15610afa57604051630a85bd0160e11b81526001600160a01b0384169063150b7a0290610a189088908890879087906004016113de565b6020604051808303816000875af1925050508015610a53575060408051601f3d908101601f19168201909252610a509181019061141b565b60015b610abc573d808015610a81576040519150601f19603f3d011682016040523d82523d6000602084013e610a86565b606091505b508051600003610ab457604051633250574960e11b81526001600160a01b0385166004820152602401610454565b805160208201fd5b6001600160e01b03198116630a85bd0160e11b14610af857604051633250574960e11b81526001600160a01b0385166004820152602401610454565b505b5050505050565b60606008805461035d90611217565b60606000610b1d83610d25565b600101905060008167ffffffffffffffff811115610b3d57610b3d611038565b6040519080825280601f01601f191660200182016040528015610b67576020820181803683370190505b5090508181016020015b600019016f181899199a1a9b1b9c1cb0b131b232b360811b600a86061a8153600a8504945084610b7157509392505050565b8080610bb757506001600160a01b03821615155b15610c79576000610bc78461075f565b90506001600160a01b03831615801590610bf35750826001600160a01b0316816001600160a01b031614155b8015610c065750610c0481846106f3565b155b15610c2f5760405163a9fbf51f60e01b81526001600160a01b0384166004820152602401610454565b8115610c775783856001600160a01b0316826001600160a01b03167f8c5be1e5ebec7d5bd14f71427d1e84f3dd0314c0f7b2291e5b200ac8c7c3b92560405160405180910390a45b505b5050600090815260046020526040902080546001600160a01b0319166001600160a01b0392909216919091179055565b610cb4838383610dfd565b6105ae576001600160a01b038316610ce257604051637e27328960e01b815260048101829052602401610454565b60405163177e802f60e01b81526001600160a01b038316600482015260248101829052604401610454565b610d178383610e63565b6105ae3360008585856109d6565b60008072184f03e93ff9f4daa797ed6e38ed64bf6a1f0160401b8310610d645772184f03e93ff9f4daa797ed6e38ed64bf6a1f0160401b830492506040015b6d04ee2d6d415b85acef81000000008310610d90576d04ee2d6d415b85acef8100000000830492506020015b662386f26fc100008310610dae57662386f26fc10000830492506010015b6305f5e1008310610dc6576305f5e100830492506008015b6127108310610dda57612710830492506004015b60648310610dec576064830492506002015b600a83106103485760010192915050565b60006001600160a01b03831615801590610e5b5750826001600160a01b0316846001600160a01b03161480610e375750610e3784846106f3565b80610e5b57506000828152600460205260409020546001600160a01b038481169116145b949350505050565b6001600160a01b038216610e8d57604051633250574960e11b815260006004820152602401610454565b6000610e9b838360006107a5565b90506001600160a01b038116156105ae576040516339e3563760e11b815260006004820152602401610454565b6001600160e01b03198116811461075c57600080fd5b600060208284031215610ef057600080fd5b81356106ec81610ec8565b60005b83811015610f16578181015183820152602001610efe565b50506000910152565b60008151808452610f37816020860160208601610efb565b601f01601f19169290920160200192915050565b6020815260006106ec6020830184610f1f565b600060208284031215610f7057600080fd5b5035919050565b80356001600160a01b038116811461058e57600080fd5b60008060408385031215610fa157600080fd5b610faa83610f77565b946020939093013593505050565b600080600060608486031215610fcd57600080fd5b610fd684610f77565b9250610fe460208501610f77565b929592945050506040919091013590565b602080825282518282018190526000918401906040840190835b8181101561102d57835183526020938401939092019160010161100f565b509095945050505050565b634e487b7160e01b600052604160045260246000fd5b60008067ffffffffffffffff84111561106957611069611038565b50604051601f19601f85018116603f0116810181811067ffffffffffffffff8211171561109857611098611038565b6040528381529050808284018510156110b057600080fd5b83836020830137600060208583010152509392505050565b6000602082840312156110da57600080fd5b813567ffffffffffffffff8111156110f157600080fd5b8201601f8101841361110257600080fd5b610e5b8482356020840161104e565b60006020828403121561112357600080fd5b6106ec82610f77565b6000806040838503121561113f57600080fd5b61114883610f77565b91506020830135801515811461115d57600080fd5b809150509250929050565b6000806000806080858703121561117e57600080fd5b61118785610f77565b935061119560208601610f77565b925060408501359150606085013567ffffffffffffffff8111156111b857600080fd5b8501601f810187136111c957600080fd5b6111d88782356020840161104e565b91505092959194509250565b600080604083850312156111f757600080fd5b61120083610f77565b915061120e60208401610f77565b90509250929050565b600181811c9082168061122b57607f821691505b60208210810361124b57634e487b7160e01b600052602260045260246000fd5b50919050565b634e487b7160e01b600052601160045260246000fd5b8181038181111561034857610348611251565b60006001820161128c5761128c611251565b5060010190565b634e487b7160e01b600052603260045260246000fd5b601f8211156105ae57806000526020600020601f840160051c810160208510156112d05750805b601f840160051c820191505b81811015610afa57600081556001016112dc565b815167ffffffffffffffff81111561130a5761130a611038565b61131e816113188454611217565b846112a9565b6020601f821160018114611352576000831561133a5750848201515b600019600385901b1c1916600184901b178455610afa565b600084815260208120601f198516915b828110156113825787850151825560209485019460019092019101611362565b50848210156113a05786840151600019600387901b60f8161c191681555b50505050600190811b01905550565b600083516113c1818460208801610efb565b8351908301906113d5818360208801610efb565b01949350505050565b6001600160a01b038581168252841660208201526040810183905260806060820181905260009061141190830184610f1f565b9695505050505050565b60006020828403121561142d57600080fd5b81516106ec81610ec856fea2646970667358221220472980c1c750459526ef4bfd3c6e829285c19113a5fbd1126899a6dc027db12864736f6c634300081c0033",
  "linkReferences": {},
  "deployedLinkReferences": {}
}